:100000000C9403010C942F010C942F010C942F01DC
:100010000C942F010C942F010C942F010C942F01A0
:100020000C942F010C942F010C942F010C942F0190
:100030000C942F010C942F010C942F010C942F0180
:100040000C942F010C942F010C942F010C942F0170
:100050000C942F010C942F010C942F010C94190275
:100060000C942F010C9467040C9493050C942F01AD
:100070000C942F010C942F010C942F010C942F0140
:100080000C942F010C942F010C942F010C942F0130
:100090000C94A0040C94D2050C942F010C942F0105
:1000A0000C942F010C942F010C942F010C942F0110
:1000B0000C942F010C942F010C942F010C942F0100
:1000C0000C942F010C942F010C942F010C94D90443
:1000D0000C9411060C942F010C9412050C945006EC
:1000E0000C942F0100002100240027002A002D007D
:1000F0003000330001010000040107010A01000083
:100100002200250028002B002E00310034000201BF
:100110000000050108010B0100002000230026005B
:1001200029002C002F00320000010000030106010D
:10013000090105050505070508080808020202026D
:100140000A0A080804040404010101010101010173
:100150000303030303030303040707070C0C0C0C3E
:100160000C0C0C0C02020202060606060606060627
:100170000B0B0B0B0B0B0B0B0102102020080810B4
:100180002040102040800201020108040201010207
:1001900004081020408080402010080402018004E0
:1001A000020180402010080402010804020101023B
:1001B0000408102040800102040810204080000044
:1001C000090A02080B0C0D070603040100000000D9
:1001D000000000000000000000000000000000001F
:1001E0000000000000000000000011100F000000DF
:1001F00000000000000000000000000000000000FF
:1002000000000000BA0711241FBECFEFD1E2DEBF0D
:10021000CDBF00E00CBF12E0A0E0B2E0E2E8F2E106
:1002200000E00BBF02C007900D92A633B107D9F7CB
:1002300014E0A6E3B2E001C01D92AB3DB107E1F7C7
:1002400012E0C6E0D2E004C02297FE010E943B0902
:10025000C430D107C9F70E9405090C9414090C9405
:100260000000CF93DF93DB010D900020E9F7119799
:10027000A61BB70BEC01E881F9810280F381E02D28
:10028000AD011995DF91CF9108950F931F93CF93EF
:10029000DF938FE594E00E94460781E00E941C03F3
:1002A000EC0180E00E941C038C016AE070E080E0B9
:1002B00090E00E94610282E00E943604892B31F4B2
:1002C0008FE594E060E072E00E94310183E00E94DB
:1002D0003604892B31F48FE594E063E072E00E94EC
:1002E000310184E00E943604892BA1F4809122021E
:1002F000909123020817190769F4809120029091C8
:100300002102C817D90731F48FE594E066E072E066
:100310000E943101209120023091210240911E0261
:1003200050911F02CA01820F931F8C179D075CF426
:100330008FE594E068E072E00E9431018FE594E07F
:100340006BE072E00FC0241B350BC217D30764F4B7
:100350008FE594E06DE072E00E9431018FE594E05A
:1003600060E172E00E940209209122023091230292
:1003700040911E0250911F02CA01820F931F8017E5
:1003800091075CF48FE594E062E172E00E94310134
:100390008FE594E065E172E00FC0241B350B021776
:1003A00013076CF48FE594E067E172E00E9431017D
:1003B0008FE594E06AE172E00E9402096ECF8FE55A
:1003C00094E06CE172E00E94310167CF82E060E06E
:1003D0000E94500383E060E00E94500384E060E0EC
:1003E0000E94500385E060E00E94500386E061E0D7
:1003F0000E94500382E061E00E94030483E061E018
:100400000E94030484E061E00E94030485E061E04F
:100410000E94030481E00E941C0380E00E941C03F0
:100420008FE594E040E855E260E070E00E948F06BE
:1004300008951F920F920FB60F9211242F933F939E
:100440008F939F93AF93BF9380913A0290913B0219
:10045000A0913C02B0913D0230913E020196A11D57
:10046000B11D232F2D5F2D3720F02D570196A11D93
:10047000B11D20933E0280933A0290933B02A093D9
:100480003C02B0933D028091360290913702A091D8
:100490003802B09139020196A11DB11D8093360238
:1004A00090933702A0933802B0933902BF91AF9175
:1004B0009F918F913F912F910F900FBE0F901F90A2
:1004C00018959B01AC017FB7F8948091360290910A
:1004D0003702A0913802B091390266B5A89B05C0D9
:1004E0006F3F19F00196A11DB11D7FBFBA2FA92F33
:1004F000982F8827860F911DA11DB11D62E0880FDE
:10050000991FAA1FBB1F6A95D1F7BC012DC0FFB769
:10051000F8948091360290913702A0913802B09100
:100520003902E6B5A89B05C0EF3F19F00196A11D61
:10053000B11DFFBFBA2FA92F982F88278E0F911DAD
:10054000A11DB11DE2E0880F991FAA1FBB1FEA95EC
:10055000D1F7861B970B885E9340C8F2215030403C
:100560004040504068517C4F2115310541055105EF
:1005700071F60895789484B5826084BD84B58160F5
:1005800084BD85B5826085BD85B5816085BDEEE69B
:10059000F0E0808181608083E1E8F0E0108280817A
:1005A00082608083808181608083E0E8F0E08081E8
:1005B00081608083E1EBF0E0808184608083E0EB08
:1005C000F0E0808181608083E1E9F0E080818260F9
:1005D0008083808181608083E0E9F0E080818160B8
:1005E0008083E1EAF0E080818260808380818160A5
:1005F0008083E0EAF0E0808181608083E1E2F1E0E5
:10060000808182608083808181608083E0E2F1E08C
:10061000808181608083EAE7F0E08081846080836C
:100620008081826080838081816080838081806816
:1006300080831092C1000895382F863308F0365316
:1006400020917B00832F86958695869590E081701A
:10065000907043E0880F991F4A95E1F7277F282B78
:1006600020937B003770809124028295880F880F39
:10067000807C832B80937C0080917A0080648093BF
:100680007A0080917A0086FDFCCF2091780040911D
:100690007900942F80E030E0282B392BC901089590
:1006A000CF93DF93482F50E0CA0188589E4FFC013A
:1006B00034914E5C5E4FFA018491882369F190E099
:1006C000880F991FFC01EC51FF4FA591B491FC01DB
:1006D000E250FF4FC591D491662351F42FB7F8949F
:1006E0008C91932F909589238C93888189230BC0BB
:1006F000623061F42FB7F8948C91932F90958923F1
:100700008C938881832B88832FBF06C09FB7F89472
:100710008C91832B8C939FBFDF91CF91089589306B
:1007200009F449C08A30A0F4843051F1853040F496
:10073000823079F1833000F5813009F063C026C042
:10074000873079F1883098F5863009F05BC025C094
:100750008D3009F442C08E3028F48B30B1F18C30EA
:10076000C0F52DC0803109F442C0813109F445C083
:100770008F3009F047C037C0809180008F7703C069
:10078000809180008F7D80938000089584B58F775D
:1007900002C084B58F7D84BD08958091B0008F77AD
:1007A00003C08091B0008F7D8093B0000895809148
:1007B00090008F7707C0809190008F7D03C080915B
:1007C0009000877F8093900008958091A0008F779C
:1007D00007C08091A0008F7D03C08091A000877F1B
:1007E0008093A0000895809120018F7703C08091AD
:1007F00020018F7D80932001089580912001877FC3
:10080000809320010895FF920F931F93F62E482F97
:1008100050E0CA0182549E4FFC012491CA018858BD
:100820009E4FFC0114914E5C5E4FFA01049100232F
:10083000C9F0222319F0822F0E948F03E02FF0E0ED
:10084000EE0FFF1FE250FF4FA591B4919FB7F894B0
:10085000FF2021F48C911095812302C08C91812B73
:100860008C939FBF1F910F91FF9008950F931F933B
:10087000482F50E0CA0182549E4FFC012491CA01C6
:1008800088589E4FFC0104914E5C5E4FFA01149112
:10089000112319F420E030E015C0222319F0822F33
:1008A0000E948F03812F90E0880F991F885E9E4FD2
:1008B000FC01A591B4918C9120E030E0802311F0EF
:1008C00021E030E0C9011F910F91089508951F9212
:1008D0000F920FB60F920BB60F9211242F933F93E6
:1008E0004F938F939F93EF93FF934091C600209176
:1008F0007F02309180022F5F3F4F2F7330708091C5
:100900008102909182022817390759F0E0917F0205
:10091000F0918002E15CFD4F408330938002209390
:100920007F02FF91EF919F918F914F913F912F9176
:100930000F900BBE0F900FBE0F901F90189508954B
:100940001F920F920FB60F920BB60F9211242F9396
:100950003F934F938F939F93EF93FF934091CE00DC
:1009600020910703309108032F5F3F4F2F733070A2
:100970008091090390910A032817390759F0E091F3
:100980000703F0910803E953FD4F408330930803B8
:1009900020930703FF91EF919F918F914F913F918A
:1009A0002F910F900BBE0F900FBE0F901F901895B8
:1009B00008951F920F920FB60F920BB60F9211244B
:1009C0002F933F934F938F939F93EF93FF93409178
:1009D000D60020918F03309190032F5F3F4F2F73EC
:1009E000307080919103909192032817390759F044
:1009F000E0918F03F0919003E15BFC4F40833093D3
:100A0000900320938F03FF91EF919F918F914F91CE
:100A10003F912F910F900BBE0F900FBE0F901F9024
:100A2000189508951F920F920FB60F920BB60F9262
:100A300011242F933F934F938F939F93EF93FF93A3
:100A40004091360120911704309118042F5F3F4FD9
:100A50002F7330708091190490911A042817390768
:100A600059F0E0911704F0911804E952FC4F4083CB
:100A70003093180420931704FF91EF919F918F9169
:100A80004F913F912F910F900BBE0F900FBE0F9083
:100A90001F901895E0916B04F0916C04E05CFF4F9F
:100AA0008191919120813181821B930B8F73907082
:100AB000892B11F00E946604E0918A04F0918B0466
:100AC000E05CFF4F8191919120813181821B930BDA
:100AD0008F739070892B11F00E949F04E091A904FC
:100AE000F091AA04E05CFF4F8191919120813181C6
:100AF000821B930B8F739070892B11F00E94D80486
:100B0000E091C804F091C904E05CFF4F819191919C
:100B100020813181821B930B8F739070892B11F090
:100B20000E94110508951F920F920FB60F920BB6F7
:100B30000F9211242F933F938F939F93EF93FF93E3
:100B40002091C3023091C4028091C5029091C602E7
:100B50002817390731F48091C1008F7D8093C1003F
:100B600014C0E091C502F091C602ED57FD4F2081FF
:100B70008091C5029091C60201968F7390709093F8
:100B8000C6028093C5022093C600FF91EF919F910A
:100B90008F913F912F910F900BBE0F900FBE0F9032
:100BA0001F9018951F920F920FB60F920BB60F92CF
:100BB00011242F933F938F939F93EF93FF93209153
:100BC0004B0330914C0380914D0390914E032817B5
:100BD000390731F48091C9008F7D8093C90014C01A
:100BE000E0914D03F0914E03E55FFC4F2081809131
:100BF0004D0390914E0301968F73907090934E0326
:100C000080934D032093CE00FF91EF919F918F91A0
:100C10003F912F910F900BBE0F900FBE0F901F9022
:100C200018951F920F920FB60F920BB60F921124C8
:100C30002F933F938F939F93EF93FF932091D30331
:100C40003091D4038091D5039091D60328173907AA
:100C500031F48091D1008F7D8093D10014C0E09158
:100C6000D503F091D603ED56FC4F20818091D5033A
:100C70009091D60301968F7390709093D6038093D2
:100C8000D5032093D600FF91EF919F918F913F91D3
:100C90002F910F900BBE0F900FBE0F901F901895C5
:100CA0001F920F920FB60F920BB60F9211242F9333
:100CB0003F938F939F93EF93FF9320915B04309129
:100CC0005C0480915D0490915E042817390731F42B
:100CD000809131018F7D8093310114C0E0915D04DA
:100CE000F0915E04E55EFB4F208180915D04909160
:100CF0005E0401968F73907090935E0480935D0400
:100D000020933601FF91EF919F918F913F912F9109
:100D10000F900BBE0F900FBE0F901F901895AF92C3
:100D2000BF92DF92EF92FF920F931F93CF93DF93C7
:100D3000EC017A018B01DD24403081EE580780E020
:100D4000680780E0780711F0DD24D39491E0A92EA4
:100D5000B12CEC89FD89DD2069F0C5010E8C02C043
:100D6000880F991F0A94E2F7808360E079E08DE3B1
:100D700090E005C0108260E874E88EE190E0A80180
:100D800097010E941709215030404040504056952D
:100D900047953795279580E12030380720F0DD20F2
:100DA00011F0DD24D6CFE889F9893083EA89FB89FF
:100DB0002083EE89FF89408121E030E0C9010A8C5F
:100DC00002C0880F991F0A94E2F7482B4083EE89EE
:100DD000FF894081C9010B8C02C0880F991F0A94BA
:100DE000E2F7482B4083EE89FF894081C9010C8CD2
:100DF00002C0880F991F0A94E2F7482B4083EE89BE
:100E0000FF8980810D8C02C0220F331F0A94E2F704
:100E1000209528232083DF91CF911F910F91FF9080
:100E2000EF90DF90BF90AF900895DC011C96ED919C
:100E3000FC911D97E05CFF4F219131918081918160
:100E4000281B390B2F733070C9010895DC011C96E3
:100E5000ED91FC911D97E05CFF4F20813181E054C2
:100E6000F040DF01AE5BBF4F8D919C911197281729
:100E7000390719F42FEF3FEF07C08D919C91E80FD0
:100E8000F91F8081282F30E0C9010895DC011C96EC
:100E9000ED91FC911D97E05CFF4F20813181E05482
:100EA000F040DF01AE5BBF4F8D919C9111972817E9
:100EB000390719F42FEF3FEF10C08D919C911197D6
:100EC000E80FF91F20818D919C91119701968F73E6
:100ED000907011969C938E9330E0C9010895FC01A7
:100EE00086859785DC01A05CBF4FFC01EE5BFF4F60
:100EF0002D913C9111978081918128173907C1F775
:100F00000895CF93DF93EC01EE85FF85E05CFF4F02
:100F100020813181E054F0402F5F3F4F2F733070BC
:100F2000DF01AE5BBF4F8D919C9111972817390758
:100F3000D1F3E05CFF4F80819181E054F040E80FF5
:100F4000F91F6083EE85FF85E05CFF4F31832083CE
:100F5000EE89FF89208181E090E00D8C02C0880F2E
:100F6000991F0A94E2F7282B208381E090E0DF911B
:100F7000CF9108951F93109262041092610428EE9D
:100F800033E040E050E020936304309364044093E6
:100F900065045093660469E272E0709360046093A4
:100FA0005F048FE392E090936C0480936B0483E87A
:100FB00092E090936E0480936D0485EC90E09093A2
:100FC000700480936F0484EC90E09093720480939B
:100FD000710480EC90E0909374048093730481EC2E
:100FE00090E0909376048093750486EC90E0909363
:100FF00078048093770414E010937904B3E0B093FD
:101000007A04A7E0A0937B04F5E0F0937C04E1E090
:10101000E0937D0410928104109280042093820456
:1010200030938304409384045093850470937F0429
:1010300060937E0487EC92E090938B0480938A0403
:101040008BE093E090938D0480938C048DEC90E082
:1010500090938F0480938E048CEC90E09093910495
:101060008093900488EC90E0909393048093920492
:1010700089EC90E090939504809394048EEC90E03A
:10108000909397048093960410939804B0939904D6
:10109000A0939A04F0939B04E0939C041092A00404
:1010A00010929F042093A1043093A2044093A304C0
:1010B0005093A40470939E0460939D048FE493E086
:1010C0009093AA048093A90483E993E09093AC04DD
:1010D0008093AB0485ED90E09093AE048093AD04D3
:1010E00084ED90E09093B0048093AF0480ED90E0A5
:1010F0009093B2048093B10481ED90E09093B40496
:101100008093B30486ED90E09093B6048093B50489
:101110001093B704B093B804A093B904F093BA0441
:10112000E093BB041092BF041092BE042093C0044D
:101130003093C1044093C2045093C3047093BD0420
:101140006093BC0487ED93E09093C9048093C80436
:101150008BE194E09093CB048093CA0485E391E003
:101160009093CD048093CC0484E391E09093CF04DA
:101170008093CE0480E391E09093D1048093D004D7
:1011800081E391E09093D3048093D20486E391E0CD
:101190009093D5048093D4041093D604B093D704CD
:1011A000A093D804F093D904E093DA041F91089532
:1011B000CF92DF92EF92FF920F931F93CF93DF9323
:1011C0007C016B018A01C0E0D0E00FC0D6016D91B7
:1011D0006D01D701ED91FC910190F081E02DC701E7
:1011E0001995C80FD91F015010400115110571F74D
:1011F000CE01DF91CF911F910F91FF90EF90DF9083
:10120000CF9008950E9431010895CF93DF930E94FB
:10121000BA020E94E601CAE4D5E00E944501209787
:10122000E1F30E944A05F9CFF8940C943F09A1E23A
:101230001A2EAA1BBB1BFD010DC0AA1FBB1FEE1F50
:10124000FF1FA217B307E407F50720F0A21BB30B9B
:10125000E40BF50B661F771F881F991F1A9469F717
:1012600060957095809590959B01AC01BD01CF0173
:101270000895EE0FFF1F0590F491E02D1994F89456
:02128000FFCF9E
:101282004120004220004300442000440055200039
:10129200550052200052004C20004C002000280033
:1012A2000902FE0101000000008107D80815074667
:0612B2000726076F07008C
:00000001FF
